:100000000C9474030C949C030C949C030C949C031C
:100010000C949C030C949C030C949C030C949C03E4
:100020000C949C030C949C030C949C030C949C03D4
:100030000C949C030C949C030C949C030C949C03C4
:100040000C944D080C949C030C949C030C949C03FE
:100050000C949C030C949C030C949C030C949C03A4
:100060000C9497080C949C03000000000000000012
:100070000000000000000000000000F80000000088
:10008000000000333000000000100C06100C0600C9
:10009000000000000000000040C07840C078400030
:1000A000043F04043F040400007088FC0830000092
:1000B000001820FF211E0000F008F000E0180000EA
:1000C00000211C031E211E0000F0088870000000A3
:1000D0001E2123241927211010160E0000000000F5
:1000E0000000000000000000000000E01804020012
:1000F000000000071820400000020418E000000083
:100100000040201807000000404080F08040400080
:100110000202010F01020200000000F000000000D6
:100120000101011F010101000000000000000000AA
:1001300080B070000000000000000000000000001F
:1001400000010101010101010000000000000000A8
:100150000030300000000000000000008060180443
:10016000006018060100000000E010080810E00020
:10017000000F102020100F00001010F800000000E9
:100180000020203F20200000007008080888700030
:1001900000302824222130000030088888483000B0
:1001A0000018202020110E000000C02010F80000D0
:1001B00000070424243F240000F808888808080069
:1001C0000019212020110E0000E01088881800007E
:1001D000000F112020110E0000380808C838080050
:1001E0000000003F000000000070880808887000D0
:1001F000001C222121221C0000E010080810E00051
:100200000000312222110F00000000C0C0000000D9
:1002100000000030300000000000008000000000FE
:1002200000008060000000000000804020100800F6
:1002300000010204081020004040404040404000BF
:10024000040404040404040000081020408000009A
:100250000020100804020100007048080808F0009F
:100260000000003036010000C030C828E810E0006F
:100270000718272423140B000000C038E0000000FA
:10028000203C23020227382008F888888870000064
:10029000203F202020110E00C03008080808380038
:1002A000071820202010080008F808080810E000AF
:1002B000203F202020100F0008F88888E808100050
:1002C000203F20202320180008F88888E808100024
:1002D000203F200003000000C0300808083800005C
:1002E00007182020221E020008F808000008F8085D
:1002F000203F210101213F20000808F808080000E4
:100300000020203F2020000000000808F808080016
:10031000C08080807F00000008F888C0281808008E
:10032000203F20012638200008F8080000000000C7
:10033000203F20202020300008F8F800F8F80800BE
:10034000203F003F003F200008F830C00008F808B8
:10035000203F200007183F00E01008080810E000C8
:100360000F10202020100F0008F808080808F000DF
:10037000203F210101010000E01008080810E00002
:100380000F18242438504F0008F888888888700097
:10039000203F2000030C3020007088080808380037
:1003A0000038202121221C00180808F8080818002D
:1003B0000000203F2000000008F808000008F808AE
:1003C000001F202020201F000878880000C838085F
:1003D000000007380E010000F80800F80008F800D7
:1003E000033C0700073C0300081868808068180871
:1003F00020302C03032C30200838C800C8380800EF
:100400000000203F2000000010080808C83808003D
:100410002038262120201800000000FE02020200E1
:100420000000007F40404000000C30C00000000091
:10043000000000010638C00000020202FE000000B9
:10044000004040407F00000000000402020204005F
:10045000000000000000000000000000000000009C
:100460008080808080808080000202040000000084
:10047000000000000000000000008080808000007C
:100480000019242222223F2008F80080800000006A
:10049000003F112020110E0000000080808000002D
:1004A000000E112020201100000000808088F8003C
:1004B000000E112020103F2000008080808000006E
:1004C000001F222222221300008080F088888818D2
:1004D0000020203F202000000000808080808000DD
:1004E000006B94949493600008F800808080000072
:1004F000203F210000203F2000809898000000004D
:100500000020203F2020000000000080989800007C
:1005100000C08080807F000008F80000808080009C
:10052000203F24022D302000000808F800000000C1
:100530000020203F2020000080808080808080007C
:10054000203F20003F20003F80800080808000000E
:10055000203F210000203F2000008080808000009C
:10056000001F202020201F008080008080000000CD
:1005700080FFA12020110E000000008080808000FC
:10058000000E112020A0FF808080800080808000ED
:1005900020203F212000010000008080808080001A
:1005A0000033242424241900008080E0808000008F
:1005B0000000001F202000008080000000808000DC
:1005C000001F202020103F2080808000008080803D
:1005D00000010E30080601008080008000808080CD
:1005E0000F300C030C300F000080800080808000F2
:1005F0000020312E0E31200080808000008080801D
:1006000080818E70180601000080808080808000CC
:100610000021302C2221300000000000807C0202EA
:1006200000000000003F404000000000FF0000000C
:1006300000000000FF0000000002027C80000000BB
:100640000040403F000000000006010102020404D7
:100650000000000000000000C8A1A81FDA028D14ED
:1006600000000000240027002A0050726573696FA3
:100670006E6172205465636C613A0000004E009117
:1006800000F70025014E018E01AC01C801F40109FB
:10069000021D023132333435363738392A302300DF
:1006A000000000250028002B0004040404040404B6
:1006B0000402020202020203030303030301020411
:1006C00008102040800102040810200102040810D4
:1006D00020000000080002010000030407000000E1
:1006E000000000000000B60911241FBECFEFD8E0C3
:1006F000DEBFCDBF11E0A0E0B1E0EAE8F7E102C063
:1007000005900D92A633B107D9F722E0A6E3B1E038
:1007100001C01D92A832B207E1F713E0C4E7D3E0AD
:1007200004C02197FE010E94B80BC337D107C9F757
:100730000E94E7090C94C30B0C94000090E0FC01AC
:10074000EF52F94F2491FC01E354F94F3491FC012D
:10075000E755F94FE491EE23C9F0222339F0233015
:1007600001F1A8F4213019F1223029F1F0E0EE0F67
:10077000FF1FE156F94FA591B4918FB7F894EC9112
:10078000611126C030953E233C938FBF08952730DA
:10079000A9F02830C9F0243049F7809180008F7D7E
:1007A00003C0809180008F7780938000DFCF84B575
:1007B0008F7784BDDBCF84B58F7DFBCF8091B00078
:1007C0008F778093B000D2CF8091B0008F7DF9CF2A
:1007D0003E2BDACF3FB7F8948091090290910A023C
:1007E000A0910B02B0910C0226B5A89B05C02F3F2B
:1007F00019F00196A11DB11D3FBFBA2FA92F982F47
:100800008827BC01CD01620F711D811D911D42E041
:10081000660F771F881F991F4A95D1F708958F9209
:100820009F92AF92BF92CF92DF92EF92FF924B01D5
:100830005C010E94EA036B017C010E94EA036C19CF
:100840007D098E099F09683E734081059105A8F3D3
:1008500021E0821A9108A108B10888EEC80E83E051
:10086000D81EE11CF11C81149104A104B10429F7E4
:10087000FF90EF90DF90CF90BF90AF909F908F90C0
:100880000895AF92BF92CF92DF92EF92FF920F93B3
:100890001F93CF93DF936C017B018B01040F151F16
:1008A000EB015E01AE18BF08C017D10759F069917E
:1008B000D601ED91FC910190F081E02DC6010995E2
:1008C000892B79F7C501DF91CF911F910F91FF908F
:1008D000EF90DF90CF90BF90AF9008952091A4014A
:1008E000260F3327331F21323105ECF42091CA0142
:1008F000FC0190E080E0243069F082E00895A0914E
:10090000A4012191AC014E575E4FA40FB52FB11D2C
:100910002C930196861798F38091A401680F609339
:10092000A40180E0089581E008951092CA0181E059
:100930008093CC011092CB0161E082E10E949E0382
:1009400061E083E10E949E03E9EBF0E080818E7F0D
:10095000808380818D7F808388E48093B80085E4E4
:100960008093BC000895CF93DF9391E09093810131
:100970008823B9F0C091B800D091BA008091BC0032
:100980008A7B8093BC0060E082E10E949E0360E06D
:1009900083E10E949E030E949504D093BA00C09305
:1009A000B800DF91CF910895089508950895E091DA
:1009B000790180917801E81730F4F0E0E85AFE4FB1
:1009C000808190E008958FEF9FEF089590917901D5
:1009D000809178012FEF3FEF981748F4E92FF0E06E
:1009E000E85AFE4F208130E09F5F90937901C90162
:1009F00008958091780190917901891B990B089550
:100A0000CF92DF92EF92FF920F931F93CF93DF93DA
:100A10007C01CB018A0120915701222389F0EB014F
:100A20006B01C40ED51ECC15DD0569F06991D701A7
:100A3000ED91FC910190F081E02DC7010995F3CF74
:100A4000642F0E946E04C801DF91CF911F910F9116
:100A5000FF90EF90DF90CF900895CF93DF931F9298
:100A6000CDB7DEB76983209157012223F9F0209199
:100A70007A01203258F021E030E0FC0133832283F8
:100A800090E080E00F90DF91CF91089580917B01FD
:100A9000E82FF0E0E95CFE4F998190838F5F8093AF
:100AA0007B0180937A0181E090E0ECCF61E0CE01A0
:100AB00001960E946E04F7CF682F80E192E00E94B9
:100AC0002D0521E0892B09F420E0822F0895E09183
:100AD000F801F091F9012091FA013091FB01A9018F
:100AE00041705527309719F44115510579F0359526
:100AF0002795820F931F452B41F0DC012D913C91EE
:100B0000E20FF31F0190F081E02D099581E090E064
:100B100008950C946705E0911C02F0911D02099460
:100B2000E0911E02F0911F020994E0912002F091E1
:100B300021020994CF93C82F0E94900581110AC009
:100B40000E948B050E94950580E40E9490058C2FE1
:100B50000E94900580910D028F5F80930D02CF91CE
:100B600008950E94950580E00C949005CF93DF9343
:100B7000C82FD62F0E94B1058D2F8770806B0E94E1
:100B800090058C2F82958F7080610E9490058C2F2C
:100B90008F700E9490050E948B05C0930F02D09326
:100BA0000E0210920D02DF91CF9108958091F30112
:100BB00001C0660F8A95EAF780910E02860F24E045
:100BC00030E0261B31098217130609F03CF48093AC
:100BD0000E0260910E0280E00C94B60584E0861B44
:100BE000F6CFAF92BF92CF92DF92EF92FF920F9328
:100BF0001F93CF93DF93A091F101B091F201129670
:100C00001C911297C62FD0E011110DC014962C9193
:100C10001497AE01421B51091896ED91FC9119975A
:100C2000E40FF51F14911396BC900091F001E12E92
:100C3000F12C40910F0220E830E02E193F094217B5
:100C4000130621F01CF06B2D0E94D60580910F0237
:100C50008E0D9F2D911D800F911D813891050CF0F7
:100C600000E0A091F101B091F20114968C911497DB
:100C7000C81BD109A9F012968C91129713969C91DA
:100C80001397492F50E0882311F1899FC001112447
:100C90009E01289FE001299FD00D389FD00D11247F
:100CA000AB2C0E94950580E40E949005CE01282F70
:100CB0002C1B211708F441C0CE0DDF1DD12C0D15C2
:100CC00009F44DC080E00E949A05D394F8CFBE018C
:100CD000F4E076956795FA95E1F730E020E090E052
:100CE00080E06217730781F06901CC0CDD1C169659
:100CF000ED91FC911797EC0DFD1DC590D4908C0DD6
:100D00009D1D2F5F3F4FEDCF9E01207F2C173D078C
:100D100060F41896ED91FC911997E20FF31FE4919E
:100D20008E0F911D2F5F3F4FF1CF849FE001859F74
:100D3000D00D949FD00D1124B3CF6C014FEFC41A86
:100D4000D40AE091F101F091F2010190F081E02DDF
:100D5000E80FF91F84910E949A05C601A8CF0E944E
:100D60008B0560910E0251E06F5F80910F025A1562
:100D700028F06B1980910F02810F800F0E94B60539
:100D8000AA94A1108ECFDF91CF911F910F91FF9068
:100D9000EF90DF90CF90BF90AF9008956D3039F114
:100DA000E091F101F091F2016A3019F463810C9441
:100DB000D60524816217D8F025812617C0F020912E
:100DC000F6013091F701A90155954795840F951FBC
:100DD000E091F401F091F50120FF08C0DC012D91B4
:100DE0003C91E20FF31F0190F081E02D09940895EA
:100DF00081E0809357018CE38093360110927B0150
:100E000010927A0181E00895CF92DF92EF92FF92E3
:100E10000F931F93CF93DF93D0917A0181E0D1326A
:100E200008F09CC0C09136010E94EA036B017C016E
:100E30008091CA0181116CC082E08093CA0181E077
:100E40008093CC018FEF8093C9011092EE01D09373
:100E5000ED01A7E3B1E0EDECF1E080E0D8138DC047
:100E60001092EF018091EF01CC0FC82BC093EF01DE
:100E70008091CB01813009F084C01092CB010E9497
:100E8000EA036B017C018091EF018093BB008091AC
:100E90007D0190917E01A0917F01B0918001892B0D
:100EA0008A2B8B2BA1F00E94EA0300917D01109107
:100EB0007E0120917F01309180016C197D098E099E
:100EC0009F09061717072807390708F442C08091C1
:100ED000BC0083FDD8CF85EC8093BC000E94EA0360
:100EE0006B017C018091CA01823009F44CC0809171
:100EF000C9018F3F09F469C08091C901803209F4AA
:100F000066C08091C901803309F463C084E026C0C3
:100F100080917D0190917E01A0917F01B09180012F
:100F2000892B8A2B8B2B09F483CF0E94EA03009133
:100F30007D0110917E0120917F01309180016C191B
:100F40007D098E099F09061717072807390708F03A
:100F50006FCF80917C010E94B30485E010927B01E9
:100F600010927A0110925701DF91CF911F910F914A
:100F7000FF90EF90DF90CF9008959D9191938F5FB8
:100F80006DCF85EEA9CF80917D0190917E01A091DA
:100F90007F01B0918001892B8A2B8B2B09F4A2CF82
:100FA0000E94EA0300917D0110917E0120917F0152
:100FB000309180016C197D098E099F09061717076A
:100FC0002807390708F08ECFC4CF80E0C7CF82E072
:100FD000C5CF83E0C3CF10927901109278011092AF
:100FE0007B0110927A010E94950484ED94E0909325
:100FF000A3018093A20185ED94E09093A7018093D3
:10100000A6010E94F8060E940407882339F06AE0CE
:1010100070E080E090E00E940F04F3CF08950895FF
:1010200090E080E008950E94BE0B85ED8093BC00A7
:1010300080917D0190917E01A0917F01B09180010E
:101040000796A11DB11D23E0B695A79597958795A5
:101050002A95D1F72091BC0024FD03C01092CA014B
:10106000089540917D0150917E0160917F017091C2
:101070008001452B462B472B69F30097A105B1054D
:1010800041F02AE22A95F1F700C00197A109B109C0
:10109000E1CF80917C010C94B3041F920F920FB6A4
:1010A0000F9211242F933F938F939F93AF93BF93EE
:1010B0008091050290910602A0910702B09108026A
:1010C0003091040223E0230F2D3758F50196A11D1E
:1010D000B11D209304028093050290930602A09311
:1010E0000702B09308028091090290910A02A09130
:1010F0000B02B0910C020196A11DB11D8093090253
:1011000090930A02A0930B02B0930C02BF91AF918F
:101110009F918F913F912F910F900FBE0F901F9035
:10112000189526E8230F0296A11DB11DD2CF1F925C
:101130000F920FB60F9211242F933F934F935F930B
:101140006F937F938F939F93AF93BF93EF93FF938F
:101150008091B900887F803609F44AC0F0F5883262
:1011600009F4A7C018F5803109F49BC0B8F48823AE
:1011700009F4F9C0883009F494C0FF91EF91BF9150
:10118000AF919F918F917F916F915F914F913F911F
:101190002F910F900FBE0F901F901895883109F472
:1011A00088C0803251F78093C90114C0803409F49B
:1011B0009DC040F48033B9F38833F9F68093C901B8
:1011C00085ECB0C0803509F485C0883509F496C037
:1011D000883499F60E941508D0CF883909F48CC05C
:1011E00038F5883729F050F4883611F0803729F621
:1011F00083E08093CA011092C80157C0883809F46F
:101200007BC0803919F0803809F0B7CF8091C801D0
:10121000803208F071C0E091C80181E08E0F8093A8
:10122000C8018091BB00F0E0E855FE4F80833DC0CF
:10123000803B39F0E0F4803A09F479C0883A09F04B
:101240009CCF84E08093CA011092A5011092A40162
:10125000E091A201F091A30109958091A40181116F
:101260000FC081E08093A4011092820109C0803CEC
:1012700009F4A6CF883C09F4A3CF883B09F07DCFC1
:10128000E091A50181E08E0F8093A501F0E0EE577B
:10129000FE4F80818093BB009091A5018091A401B5
:1012A00029C08091EF018093BB0085EC8093BC0046
:1012B00064CF9091EE018091ED01981758F5E0917F
:1012C000EE0181E08E0F8093EE01F0E0E353FE4FDC
:1012D0008081E9CFE091EE0181E08E0F8093EE01F5
:1012E0008091BB00F0E0E353FE4F80839091EE01CC
:1012F0008091ED019817C8F285E8D8CFE091EE0112
:1013000081E08E0F8093EE018091BB00F0E0E3530B
:10131000FE4F80838091CC0181115CCF81E080936E
:10132000CB0184EA8093BC001092CA0126CF85ECE1
:101330008093BC001092CA018091C801803230F4C1
:10134000E091C801F0E0E855FE4F10826091C801BD
:1013500070E0E091A601F091A70188EA91E009957B
:101360001092C8010ACF1092C90134CFE0E1F2E037
:101370001382128288EE93E0A0E0B0E0848395832C
:10138000A683B78389E191E091838083E4E2F2E070
:10139000138212828BEE97E09093230280932202B5
:1013A00088EF96E090932102809320028CE595E0EF
:1013B00090931F0280931E0284E097E090931D0299
:1013C00080931C028BE291E091838083089578944E
:1013D00084B5826084BD84B5816084BD85B582603A
:1013E00085BD85B5816085BD80916E0081608093EB
:1013F0006E00109281008091810082608093810054
:101400008091810081608093810080918000816063
:10141000809380008091B10084608093B1008091BE
:10142000B00081608093B00080917A0084608093E6
:101430007A0080917A00826080937A0080917A00AD
:10144000816080937A0080917A00806880937A002E
:101450001092C100E0912202F091230209950E94AE
:10146000B105C8E5D6E0FE011491812F0E949005D8
:10147000811107C00E948B050E94B105812F0E9437
:1014800090052196F6E0C036DF0769F70E948B05CC
:10149000C0E010E86C2F80E00E94B60580910F023A
:1014A000012F081B81F010930F020E94950580E424
:1014B0000E949005D0E080E00E949A05DF5F0D1346
:1014C000FACF0E948B05CF5FC43021F760E080E047
:1014D0000E94B6050E94B1058FEA0E9490050E9405
:1014E0008B0582E091E09093F2018093F1011092DC
:1014F000F0018EEC96E09093F9018093F801109240
:10150000FB011092FA0181EF95E09093F501809331
:10151000F4011092F7011092F6011092F301EBEC36
:10152000F6E02491E7EBF6E084918823C1F090E0A7
:10153000880F991FFC01E05AF94FC591D491FC0125
:10154000E156F94FA591B4919FB7F8948881E22FA5
:10155000E0958E2388838C91E823EC939FBF0CEF5A
:1015600011E065E1E62E61E0F62ECDE0D1E0899153
:1015700099919C013327F901E354F94F4491275580
:10158000394FF9012491222399F030E0220F331FC3
:10159000F901E05AF94FA591B491F901E156F94FDB
:1015A000259134912FB7F894EC914E2B4C932FBF8B
:1015B000F80160810E5F1F4F0E949E03EC16FD062E
:1015C000B1F660E080E00E94B6050AE616E0F80198
:1015D000649161119FC030E4B32E40E0C42E40E01E
:1015E000D42EB0927C0080917A00806480937A003F
:1015F00080917A0086FDFCCF40917800509179006F
:101600002BE736E010E000E0F90185919491BC01F0
:10161000655071094617570724F0059684179507FA
:101620004CF40F5F1F4F2E5F3F4F0C30110561F7D9
:101630000FEF1FEF8091000190910101801791073A
:10164000F9F00F3F1007E1F062E08CE30E94B6056D
:1016500041E050E063E371E084E292E00E944104E3
:1016600062E08CE30E94B605F801ED56F94F6491F3
:1016700084E292E00E94670510930101009300014B
:10168000F12CE12CE016F106E1F4C701880F991F57
:10169000FC01E450FE4F61E020813181232B09F0F1
:1016A00060E0262F30E031832083835F9E4FFC0172
:1016B00080810E949E036CE271E080E090E00E94D5
:1016C0000F04FFEFEF1AFF0A84E0E816F104D1F6E9
:1016D0000930110549F50DE011E0F80180810E5F38
:1016E0001F4F61E00E949E0360EA7FE080E090E08F
:1016F0000E940F040C171D0781F764E670E080E07C
:1017000090E00E940F04C114D10409F46ACF0E9432
:10171000000067CF84E292E00E9467050F5F1F4FD1
:10172000892B09F054CF57CF0B30110531F760E00A
:1017300082E00E949E031092FD011092FC0160E085
:1017400083E00E949E031092FF011092FE0160E070
:1017500084E00E949E03109201021092000260E059
:1017600085E00E949E031092030210920202C5CFF0
:10177000EE0FFF1F0590F491E02D099481E090E0B9
:0A178000F8940C94C30BF894FFCF0B
:10178A00FFFF68000802207E00000000000200033C
:10179A000004000500000000002D0500051008D611
:1017AA0004F904E604D70400000000890541041086
:0617BA00080F08200000EA
:00000001FF
