:100000000C9498010C94C0010C94C0010C94C00194
:100010000C94C0010C94C0010C94C0010C94C0015C
:100020000C94C0010C94C0010C94C0010C94C0014C
:100030000C94C0010C94C0010C94C0010C94C0013C
:100040000C9471060C94C0010C94C0010C94C00176
:100050000C94C0010C94C0010C94C0010C94C0011C
:100060000C94BB060C94C0010000000000000000CE
:10007000002F000000000700070000147F147F1409
:1000800000242A7F2A12002313086462003649558F
:10009000225000000503000000001C224100000067
:1000A00041221C000014083E08140008083E0808FD
:1000B000000000A060000008080808080000606058
:1000C0000000002010080402003E5149453E000097
:1000D000427F4000004261514946002141454B3179
:1000E000001814127F10002745454539003C4A4945
:1000F00049300001710905030036494949360006B7
:100100004949291E0000363600000000563600001E
:100110000008142241000014141414140000412299
:10012000140800020151090600324959513E007C71
:100130001211127C007F49494936003E414141225B
:10014000007F4141221C007F49494941007F090944
:100150000901003E4149497A007F0808087F0000F4
:10016000417F4100002040413F01007F08142241AF
:10017000007F40404040007F020C027F007F040867
:10018000107F003E4141413E007F09090906003EC3
:100190004151215E007F09192946004649494931EC
:1001A0000001017F0101003F4040403F001F20400F
:1001B000201F003F4038403F0063140814630007CD
:1001C0000870080700615149454300007F41410024
:1001D000000204081020000041417F0000040201D9
:1001E00002040040404040400000010204000020A2
:1001F00054545478007F48444438003844444420E0
:1002000000384444487F00385454541800087E098C
:1002100001020018A4A4A47C007F08040478000054
:10022000447D4000004080847D00007F1028440011
:100230000000417F4000007C04180478007C080422
:10024000047800384444443800FC2424241800185E
:10025000242418FC007C080404080048545454204A
:1002600000043F444020003C4040207C001C2040D3
:10027000201C003C4030403C004428102844001C16
:10028000A0A0A07C004464544C44000836414100C6
:100290000000007F0000000041413608000804080B
:1002A0001008C8A1A81FDA028D1400000000240065
:1002B00027002A0041505245544152205445434C96
:1002C000413A0000004E009100F70025014E018EDA
:1002D00001AC01C801F40109021D02313233343589
:1002E000363738392A302300000000250028002B3B
:1002F00000040404040404040402020202020203CF
:1003000003030303030102040810204080010204D8
:10031000081020010204081020000000080002015B
:100320000000030407000000000000000000DA07DE
:1003300011241FBECFEFD8E0DEBFCDBF11E0A0E09B
:10034000B1E0E4EAF2E102C005900D92AE32B107ED
:10035000D9F722E0AEE2B1E001C01D92A831B207A8
:10036000E1F711E0C8E9D1E004C02197FE010E9445
:100370004509C739D107C9F70E940B080C945009E9
:100380000C94000090E0FC01E75EFC4F2491FC011E
:10039000EB5FFC4F3491FC01EF50FD4FE491EE23F5
:1003A000C9F0222339F0233001F1A8F4213019F1EA
:1003B000223029F1F0E0EE0FFF1FE951FD4FA5912A
:1003C000B4918FB7F894EC91611126C030953E231B
:1003D0003C938FBF08952730A9F02830C9F024300E
:1003E00049F7809180008F7D03C0809180008F77D6
:1003F00080938000DFCF84B58F7784BDDBCF84B559
:100400008F7DFBCF8091B0008F778093B000D2CFEB
:100410008091B0008F7DF9CF3E2BDACF3FB7F894B3
:100420008091F9019091FA01A091FB01B091FC013A
:1004300026B5A89B05C02F3F19F00196A11DB11D3F
:100440003FBFBA2FA92F982F8827BC01CD01620F7B
:10045000711D811D911D42E0660F771F881F991F36
:100460004A95D1F708958F929F92AF92BF92CF9203
:10047000DF92EF92FF924B015C010E940E026B0132
:100480007C010E940E026C197D098E099F09683E4D
:10049000734081059105A8F321E0821A9108A10813
:1004A000B10888EEC80E83E0D81EE11CF11C81144F
:1004B0009104A104B10429F7FF90EF90DF90CF9051
:1004C000BF90AF909F908F900895AF92BF92CF92C0
:1004D000DF92EF92FF920F931F93CF93DF936C0104
:1004E0007B018B01040F151FEB015E01AE18BF08E5
:1004F000C017D10759F06991D601ED91FC91019097
:10050000F081E02DC6010995892B79F7C501DF91AE
:10051000CF911F910F91FF90EF90DF90CF90BF9000
:10052000AF90089520919C01260F3327331F21326D
:100530003105ECF42091C201FC0190E080E0243010
:1005400069F082E00895A0919C012191AC01465888
:100550005E4FA40FB52FB11D2C930196861798F30B
:1005600080919C01680F60939C0180E0089581E078
:1005700008951092C20181E08093C4011092C301DA
:1005800061E082E10E94C20161E083E10E94C20158
:10059000E9EBF0E080818E7F808380818D7F808396
:1005A00088E48093B80085E48093BC000895CF93DD
:1005B000DF9391E0909379018823B9F0C091B8005E
:1005C000D091BA008091BC008A7B8093BC0060E02F
:1005D00082E10E94C20160E083E10E94C2010E94A8
:1005E000B902D093BA00C093B800DF91CF910895BB
:1005F000089508950895E091710180917001E817C0
:1006000030F4F0E0E05BFE4F808190E008958FEFE2
:100610009FEF089590917101809170012FEF3FEF4E
:10062000981748F4E92FF0E0E05BFE4F208130E0BE
:100630009F5F90937101C90108958091700190911D
:100640007101891B990B0895CF92DF92EF92FF926F
:100650000F931F93CF93DF937C01CB018A012091ED
:100660004F01222389F0EB016B01C40ED51ECC157E
:10067000DD0569F06991D701ED91FC910190F08160
:10068000E02DC7010995F3CF642F0E949202C801A3
:10069000DF91CF911F910F91FF90EF90DF90CF905E
:1006A0000895CF93DF931F92CDB7DEB76983209172
:1006B0004F012223F9F020917201203258F021E0FD
:1006C00030E0FC013383228390E080E00F90DF91E3
:1006D000CF91089580917301E82FF0E0E15DFE4F26
:1006E000998190838F5F809373018093720181E081
:1006F00090E0ECCF61E0CE0101960E949202F7CF2C
:10070000682F80E092E00E94510321E0892B09F4D8
:1007100020E0822F0895E091F001F091F101209105
:10072000F2013091F301A90141705527309719F476
:100730004115510579F035952795820F931F452B6B
:1007400041F0DC012D913C91E20FF31F0190F0810B
:10075000E02D099581E090E008950C948B03E091E1
:100760000C02F0910D020994E0910E02F0910F023B
:100770000994E0911002F09111020994CF93C82FCF
:100780000E94B40381110AC00E94AF030E94B90302
:1007900080E40E94B4038C2F0E94B4038091FD0179
:1007A0008F5F8093FD01CF9108950E94B90380E08F
:1007B0000C94B403CF93DF93C82FD62F0E94D50398
:1007C0008D2F8770806B0E94B4038C2F82958F7061
:1007D00080610E94B4038C2F8F700E94B4030E942A
:1007E000AF03C093FF01D093FE011092FD01DF9192
:1007F000CF9108958091EB0101C0660F8A95EAF7C9
:100800008091FE01860F24E030E0261B310982171B
:10081000130609F03CF48093FE016091FE0180E034
:100820000C94DA0384E0861BF6CFAF92BF92CF928E
:10083000DF92EF92FF920F931F93CF93DF93A091DC
:10084000E901B091EA0112961C911297C62FD0E0EF
:1008500011110DC014962C911497AE01421B510931
:100860001896ED91FC911997E40FF51F14911396CA
:10087000BC900091E801E12EF12C4091FF0120E8AD
:1008800030E02E193F094217130621F01CF06B2DA2
:100890000E94FA038091FF018E0D9F2D911D800F04
:1008A000911D813891050CF000E0A091E901B09113
:1008B000EA0114968C911497C81BD109A9F01296DD
:1008C0008C91129713969C911397492F50E088238F
:1008D00011F1899FC00111249E01289FE001299FE9
:1008E000D00D389FD00D1124AB2C0E94B90380E4A9
:1008F0000E94B403CE01282F2C1B211708F441C0FD
:10090000CE0DDF1DD12C0D1509F44DC080E00E94E5
:10091000BE03D394F8CFBE01F4E076956795FA95BF
:10092000E1F730E020E090E080E06217730781F0AB
:100930006901CC0CDD1C1696ED91FC911797EC0D1E
:10094000FD1DC590D4908C0D9D1D2F5F3F4FEDCFA9
:100950009E01207F2C173D0760F41896ED91FC91C5
:100960001997E20FF31FE4918E0F911D2F5F3F4FF8
:10097000F1CF849FE001859FD00D949FD00D11246D
:10098000B3CF6C014FEFC41AD40AE091E901F091A2
:10099000EA010190F081E02DE80FF91F84910E9497
:1009A000BE03C601A8CF0E94AF036091FE0151E0D3
:1009B0006F5F8091FF015A1528F06B198091FF013C
:1009C000810F800F0E94DA03AA94A1108ECFDF91CD
:1009D000CF911F910F91FF90EF90DF90CF90BF903C
:1009E000AF9008956D3039F1E091E901F091EA019D
:1009F0006A3019F463810C94FA0324816217D8F0E9
:100A000025812617C0F02091EE013091EF01A90158
:100A100055954795840F951FE091EC01F091ED01FC
:100A200020FF08C0DC012D913C91E20FF31F0190E3
:100A3000F081E02D0994089581E080934F018CE3CB
:100A400080932E01109273011092720181E008953B
:100A5000CF92DF92EF92FF920F931F93CF93DF938A
:100A6000D091720181E0D13208F09CC0C0912E017A
:100A70000E940E026B017C018091C20181116CC049
:100A800082E08093C20181E08093C4018FEF809364
:100A9000C1011092E601D093E501AFE2B1E0E5ECCF
:100AA000F1E080E0D8138DC01092E7018091E7015A
:100AB000CC0FC82BC093E7018091C301813009F0AE
:100AC00084C01092C3010E940E026B017C018091D0
:100AD000E7018093BB008091750190917601A09110
:100AE0007701B0917801892B8A2B8B2BA1F00E9482
:100AF0000E020091750110917601209177013091DD
:100B000078016C197D098E099F09061717072807B8
:100B1000390708F442C08091BC0083FDD8CF85EC32
:100B20008093BC000E940E026B017C018091C20187
:100B3000823009F44CC08091C1018F3F09F469C033
:100B40008091C101803209F466C08091C101803377
:100B500009F463C084E026C080917501909176010C
:100B6000A0917701B0917801892B8A2B8B2B09F406
:100B700083CF0E940E0200917501109176012091A1
:100B80007701309178016C197D098E099F0906174C
:100B900017072807390708F06FCF809174010E946A
:100BA000D70285E0109273011092720110924F01EA
:100BB000DF91CF911F910F91FF90EF90DF90CF9039
:100BC00008959D9191938F5F6DCF85EEA9CF809110
:100BD000750190917601A0917701B0917801892BF0
:100BE0008A2B8B2B09F4A2CF0E940E020091750173
:100BF0001091760120917701309178016C197D096F
:100C00008E099F09061717072807390708F08ECFA6
:100C1000C4CF80E0C7CF82E0C5CF83E0C3CF1092BE
:100C200071011092700110927301109272010E9472
:100C3000B90288EF92E090939B0180939A0189EF2B
:100C400092E090939F0180939E010E941C050E9458
:100C50002805882339F06AE070E080E090E00E9487
:100C60003302F3CF0895089590E080E008950E9444
:100C70004B0985ED8093BC008091750190917601C0
:100C8000A0917701B09178010796A11DB11D23E0D5
:100C9000B695A795979587952A95D1F72091BC0091
:100CA00024FD03C01092C201089540917501509136
:100CB00076016091770170917801452B462B472B87
:100CC00069F30097A105B10541F02AE22A95F1F7F1
:100CD00000C00197A109B109E1CF809174010C9482
:100CE000D7021F920F920FB60F9211242F933F93AA
:100CF0008F939F93AF93BF938091F5019091F601ED
:100D0000A091F701B091F8013091F40123E0230F95
:100D10002D3758F50196A11DB11D2093F401809344
:100D2000F5019093F601A093F701B093F80180913B
:100D3000F9019091FA01A091FB01B091FC0101969B
:100D4000A11DB11D8093F9019093FA01A093FB01BD
:100D5000B093FC01BF91AF919F918F913F912F91E3
:100D60000F900FBE0F901F90189526E8230F029644
:100D7000A11DB11DD2CF1F920F920FB60F92112459
:100D80002F933F934F935F936F937F938F939F9393
:100D9000AF93BF93EF93FF938091B900887F803624
:100DA00009F44AC0F0F5883209F4A7C018F580317B
:100DB00009F49BC0B8F4882309F4F9C0883009F419
:100DC00094C0FF91EF91BF91AF919F918F917F91CF
:100DD0006F915F914F913F912F910F900FBE0F90A8
:100DE0001F901895883109F488C0803251F780939C
:100DF000C10114C0803409F49DC040F48033B9F3BC
:100E00008833F9F68093C10185ECB0C0803509F4D0
:100E100085C0883509F496C0883499F60E94390651
:100E2000D0CF883909F48CC038F5883729F050F4D0
:100E3000883611F0803729F683E08093C201109242
:100E4000C00157C0883809F47BC0803919F0803858
:100E500009F0B7CF8091C001803208F071C0E091F5
:100E6000C00181E08E0F8093C0018091BB00F0E053
:100E7000E056FE4F80833DC0803B39F0E0F4803A7D
:100E800009F479C0883A09F09CCF84E08093C201CC
:100E900010929D0110929C01E0919A01F0919B01AA
:100EA000099580919C0181110FC081E080939C0184
:100EB00010927A0109C0803C09F4A6CF883C09F45D
:100EC000A3CF883B09F07DCFE0919D0181E08E0F9B
:100ED00080939D01F0E0E658FE4F80818093BB0037
:100EE00090919D0180919C0129C08091E7018093A0
:100EF000BB0085EC8093BC0064CF9091E6018091AB
:100F0000E501981758F5E091E60181E08E0F809396
:100F1000E601F0E0EB53FE4F8081E9CFE091E6017E
:100F200081E08E0F8093E6018091BB00F0E0EB53EF
:100F3000FE4F80839091E6018091E5019817C8F2F9
:100F400085E8D8CFE091E60181E08E0F8093E6013D
:100F50008091BB00F0E0EB53FE4F80838091C40191
:100F600081115CCF81E08093C30184EA8093BC004F
:100F70001092C20126CF85EC8093BC001092C20172
:100F80008091C001803230F4E091C001F0E0E05681
:100F9000FE4F10826091C00170E0E0919E01F091DF
:100FA0009F0180EA91E009951092C0010ACF10924A
:100FB000C10134CFE0E0F2E01382128288EE93E0C8
:100FC000A0E0B0E084839583A683B78381E191E0BC
:100FD00091838083E4E1F2E0138212828FE096E055
:100FE00090931302809312028CE195E0909311028A
:100FF0008093100280E893E090930F0280930E029A
:1010000088E295E090930D0280930C0283E291E0D8
:10101000918380830895789484B5826084BD84B57B
:10102000816084BD85B5826085BD85B5816085BDE3
:1010300080916E00816080936E001092810080919B
:101040008100826080938100809181008160809323
:101050008100809180008160809380008091B10048
:1010600084608093B1008091B00081608093B00073
:1010700080917A00846080937A0080917A00826007
:1010800080937A0080917A00816080937A008091C9
:101090007A00806880937A001092C100E091120279
:1010A000F091130209950E94D503C2EAD2E0FE0135
:1010B0001491812F0E94B403811107C00E94AF03D5
:1010C0000E94D503812F0E94B4032196F2E0CA3A10
:1010D000DF0769F70E94AF03C0E010E86C2F80E0E3
:1010E0000E94DA038091FF01012F081B81F0109309
:1010F000FF010E94B90380E40E94B403D0E080E0C5
:101100000E94BE03DF5F0D13FACF0E94AF03CF5FD3
:10111000C43021F760E080E00E94DA030E94D5032A
:101120008FEA0E94B4030E94AF0382E091E09093A3
:10113000EA018093E9011092E80182EF94E0909334
:10114000F1018093F0011092F3011092F20185E118
:1011500094E09093ED018093EC011092EF011092D6
:10116000EE011092EB01E6E1F3E02491E2E0F3E01E
:1011700084918823C1F090E0880F991FFC01E65507
:10118000FD4FC591D491FC01E951FD4FA591B4915A
:101190009FB7F8948881E22FE0958E2388838C9105
:1011A000E823EC939FBF60E080E00E94DA03C4EB89
:1011B000D2E0FE01649161115FC083E4F82E00E08B
:1011C00010E0F0927C0080917A00806480937A0035
:1011D00080917A0086FDFCCF409178005091790093
:1011E00023EC32E0D0E0C0E0F90185919491BC019C
:1011F000655071094617570724F00596841795071F
:1012000044F421962E5F3F4FCC30D10569F7CFEFE4
:10121000DFEF80910001909101018C179D07F9F09B
:10122000CF3FDC07E1F062E088E20E94DA0341E0B0
:1012300050E06BE271E084E192E00E94650262E0BE
:1012400088E20E94DA03FE01E552FD4F649184E1D9
:1012500092E00E948B03D0930101C093000164E6E9
:1012600070E080E090E00E9433020115110509F45E
:10127000A8CF0E940000A5CF84E192E00E948B03DA
:101280002196892B09F095CF98CFEE0FFF1F05907F
:10129000F491E02D099481E090E0F8940C945009C9
:0412A000F894FFCFF0
:1012A400FFFF68000601207E00000000000000002F
:1012B40000510324033406FA021D030A03FB02004F
:0E12C400000000AD0365023406330620000072
:00000001FF
