:100000000C945C000C946E000C946E000C946E00CA
:100010000C946E000C946E000C946E000C946E00A8
:100020000C946E000C946E000C946E000C946E0098
:100030000C946E000C946E000C946E000C946E0088
:100040000C9445010C946E000C946E000C946E00A0
:100050000C946E000C946E000C946E000C946E0068
:100060000C946E000C946E00000000002400270029
:100070002A0000000000250028002B0004040404CE
:100080000404040402020202020203030303030342
:10009000010204081020408001020408102001021F
:1000A00004081020000000080002010000030407FB
:1000B000000000000000000011241FBECFEFD8E0B8
:1000C000DEBFCDBF21E0A0E0B1E001C01D92A930AC
:1000D000B207E1F70E948F010C9474020C940000A7
:1000E00090E0FC01EC55FF4F2491FC01E057FF4FDD
:1000F0003491FC01E458FF4FE491EE23C9F0222330
:1001000039F0233001F1A8F4213019F1223029F11E
:10011000F0E0EE0FFF1FEE58FF4FA591B4918FB79F
:10012000F894EC91611126C030953E233C938FBF2B
:1001300008952730A9F02830C9F0243049F780917C
:1001400080008F7D03C0809180008F778093800036
:10015000DFCF84B58F7784BDDBCF84B58F7DFBCFB8
:100160008091B0008F778093B000D2CF8091B000A3
:100170008F7DF9CF3E2BDACFCF93DF9390E0FC0158
:10018000E057FF4F249184589F4FFC0184918823AE
:10019000D1F090E0880F991FFC01E859FF4FA5911D
:1001A000B491FC01EE58FF4FC591D49161110EC07E
:1001B0009FB7F8948C91E22FE0958E238C93288141
:1001C000E223E8839FBFDF91CF9108958FB7F89422
:1001D000EC91E22BEC938FBFF6CF3FB7F894809170
:1001E000050190910601A0910701B091080126B583
:1001F000A89B05C02F3F19F00196A11DB11D3FBF5F
:10020000BA2FA92F982F8827BC01CD01620F711D2D
:10021000811D911D42E0660F771F881F991F4A9527
:10022000D1F708958F929F92AF92BF92CF92DF92B3
:10023000EF92FF926B017C010E94ED004B015C018B
:10024000C114D104E104F104B9F00E94ED00681971
:1002500079098A099B09683E73408105910580F3FD
:1002600021E0C21AD108E108F10888EE880E83E087
:10027000981EA11CB11CE4CFFF90EF90DF90CF90AF
:10028000BF90AF909F908F9008951F920F920FB6DE
:100290000F9211242F933F938F939F93AF93BF930C
:1002A0008091010190910201A0910301B09104019C
:1002B0003091000123E0230F2D3758F50196A11D41
:1002C000B11D209300018093010190930201A0933E
:1002D0000301B09304018091050190910601A09162
:1002E0000701B09108010196A11DB11D8093050180
:1002F00090930601A0930701B0930801BF91AF91BD
:100300009F918F913F912F910F900FBE0F901F9053
:10031000189526E8230F0296A11DB11DD2CF78941F
:1003200084B5826084BD84B5816084BD85B58260FA
:1003300085BD85B5816085BD80916E0081608093AB
:100340006E00109281008091810082608093810014
:100350008091810081608093810080918000816024
:10036000809380008091B10084608093B10080917F
:10037000B00081608093B00080917A0084608093A7
:100380007A0080917A00826080937A0080917A006E
:10039000816080937A0080917A00806880937A00EF
:1003A0001092C10060E086E00E94BC0061E08EE037
:1003B0000E94BC0061E08FE00E94BC0061E080E12F
:1003C0000E94BC0061E083E10E94BC0061E082E128
:1003D0000E94BC0060E08FE00E94700060E08EE050
:1003E0000E94700060E080E10E94700060E083E1A4
:1003F0000E94700060E082E10E94700060ED77E092
:1004000080E090E00E941201C0E0D0E061E08EE068
:100410000E94700060E08FE00E94700060E080E168
:100420000E94700061E083E10E94700060E082E160
:100430000E94700060EA7FE080E090E00E9412017C
:1004400060E08EE00E94700061E08FE00E9470002A
:1004500060E080E10E94700060E083E10E94700033
:1004600060E082E10E94700060ED77E080E090E063
:100470000E94120160E08EE00E94700060E08FE058
:100480000E94700061E080E10E94700060E083E102
:100490000E94700061E082E10E94700060EA7FE0EB
:1004A00080E090E00E94120160E08EE00E94700007
:1004B00061E08FE00E94700060E080E10E947000C7
:1004C00060E083E10E94700060E082E10E947000C1
:1004D00060ED77E080E090E00E941201209709F43F
:0C04E00095CF0E94000092CFF894FFCF4F
:00000001FF
