:100000000C945D000C9485000C9485000C94850084
:100010000C9485000C9485000C9485000C9485004C
:100020000C9485000C9485000C9485000C9485003C
:100030000C9485000C9485000C9485000C9485002C
:100040000C9499020C9485000C9485000C94850006
:100050000C9485000C9485000C9485000C9485000C
:100060000C9485000C94850000000008000201003B
:100070000003040700000000000000000000000072
:10008000250028002B0000000000240027002A0083
:10009000040404040404040402020202020203032E
:1000A0000303030301020408102040800102040836
:1000B0001020010204081020C40311241FBECFEF3A
:1000C000D8E0DEBFCDBF11E0A0E0B1E0E4EDF7E0A5
:1000D00002C005900D92A635B107D9F721E0A6E53B
:1000E000B1E001C01D92AB37B207E1F710E0CDE5FA
:1000F000D0E004C02197FE010E94E203CC35D10775
:10010000C9F70E94E3020C94E8030C94000090E00D
:10011000FC01EC55FF4F249180579F4FFC018491C7
:10012000882399F090E0880F991FFC01EA57FF4F50
:10013000A591B491FC01E458FF4F859194918FB73C
:10014000F894EC91E22BEC938FBF089590E0FC01C2
:10015000E859FF4F2491FC01EC55FF4F3491FC010D
:10016000E057FF4FE491EE23C9F0222339F023300A
:1001700001F1A8F4213019F1223029F1F0E0EE0F5D
:10018000FF1FE458FF4FA591B4918FB7F894EC91FD
:10019000611126C030953E233C938FBF08952730D0
:1001A000A9F02830C9F0243049F7809180008F7D74
:1001B00003C0809180008F7780938000DFCF84B56B
:1001C0008F7784BDDBCF84B58F7DFBCF8091B0006E
:1001D0008F778093B000D2CF8091B0008F7DF9CF20
:1001E0003E2BDACF3FB7F89480915F019091600188
:1001F000A0916101B091620126B5A89B05C02F3F77
:1002000019F00196A11DB11D3FBFBA2FA92F982F3C
:100210008827BC01CD01620F711D811D911D42E037
:10022000660F771F881F991F4A95D1F70895AF92DF
:10023000BF92CF92DF92EF92FF920F931F93CF93D3
:10024000DF936C017B018B01040F151FEB015E0135
:10025000AE18BF08C017D10759F06991D601ED91CA
:10026000FC910190F081E02DC6010995892B79F769
:10027000C501DF91CF911F910F91FF90EF90DF901B
:10028000CF90BF90AF900895089590E080E00895DA
:10029000FC0101900020E9F73197AF01481B590B91
:1002A000BC0183E691E00C941701CF93DF93EC013E
:1002B00060E08E810E94A60061E08E810E94A6000F
:1002C00060E08E810E94A6008BE891E00197F1F733
:1002D000DF91CF910895CF92DF92EF92FF920F932B
:1002E0001F93CF93DF936C017C0187E0E80EF11C34
:1002F000D0E0C0E0062F10E0B8010C2E02C07595CA
:1003000067950A94E2F76170F70181917F010E947D
:10031000A6002196C430D10579F7C601DF91CF91AF
:100320001F910F91FF90EF90DF90CF900C945501AB
:10033000CF92DF92EF92FF920F931F93CF93DF93B1
:10034000EC01F62E642F8C810E94A6008D818F3FD8
:1003500019F060E00E94A6000F2D10E08F8584FF49
:1003600025C06E0187E0C80ED11CF12CE12CB8012C
:100370000E2C02C0759567950A94E2F76170F6013C
:1003800081916F010E94A600FFEFEF1AFF0A88E03B
:10039000E816F10461F7CE01DF91CF911F910F9123
:1003A000FF90EF90DF90CF900C945501B80184E05E
:1003B000759567958A95E1F7CE010E946B016F2DC7
:1003C000CE01DF91CF911F910F91FF90EF90DF90C1
:1003D000CF900C946B0140E0682F83E691E00C9481
:1003E0009801CF93DF93823029F490917201986045
:1003F00090937201809376011092770180E480934C
:10040000780180E18093790180E580937A01809181
:1004100067010E948700809168018F3F11F00E9460
:100420008700809169010E948700C3E6D1E09E01A8
:10043000235631408091720184FD0AC084E090E02F
:100440002196281739073CF48E810E948700EFCF50
:1004500088E090E0F5CF8BE39DE00197F1F760E055
:10046000809167010E94A60060E0809169010E946E
:10047000A600809168018F3F19F060E00E94A600FD
:100480008091720184FD39C063E083E691E00E94AF
:100490006B01CBE4D6E4CE010197F1F763E083E68C
:1004A00091E00E946B012197F1F763E083E691E010
:1004B0000E946B0183E592E00197F1F762E083E629
:1004C00091E00E946B018091720180620E94EB01B9
:1004D00084E0809373018CE00E94EB0181E00E9434
:1004E000EB018BE39FE10197F1F782E080937401C8
:1004F00086E0DF91CF910C94EB0180620E94EB01CA
:100500008BE496E40197F1F78091720180620E947A
:10051000EB0183E592E00197F1F78091720180622F
:100520000E94EB01D0CF41E00E94980181E090E071
:1005300008951F920F920FB60F9211242F933F939D
:100540008F939F93AF93BF9380915B0190915C01D8
:10055000A0915D01B0915E0130915A0123E0230F1B
:100560002D3758F50196A11DB11D20935A01809396
:100570005B0190935C01A0935D01B0935E0180915B
:100580005F0190916001A0916101B09162010196BB
:10059000A11DB11D80935F0190936001A093610143
:1005A000B0936201BF91AF919F918F913F912F9135
:1005B0000F900FBE0F901F90189526E8230F0296FC
:1005C000A11DB11DD2CF789484B5826084BD84B55D
:1005D000816084BD85B5826085BD85B5816085BD3E
:1005E00080916E00816080936E00109281008091F6
:1005F000810082608093810080918100816080937E
:100600008100809180008160809380008091B100A2
:1006100084608093B1008091B00081608093B000CD
:1006200080917A00846080937A0080917A00826061
:1006300080937A0080917A00816080937A00809123
:100640007A00806880937A001092C10082E00E9454
:10065000F10115E4C0E0D0E0E1E080917601811184
:10066000E0E0E195F0E0ED59FE4F848980680E945A
:10067000EB018CE391E00E94480110937C00809193
:100680007A00806480937A0080917A0086FDFCCFA6
:10069000809178009091790090935901809358014E
:1006A0001092570110925601809156019091570176
:1006B000803191050CF062C0880F991FFC01E45E47
:1006C000FE4F809158019091590120813181821B08
:1006D000930B0496099708F045C0E0917601E2304B
:1006E00008F04AC0E150F0E0ED59FE4F848980687F
:1006F0000E94EB018DE491E00E944801E0915601D7
:10070000F0915701E45FFE4F41E0608183E691E0A4
:100710000E94980184E591E00E9448010E94F20045
:100720004B015C0184E6C82ED12CE12CF12C0E94F7
:10073000F200681979098A099B09683E73408105AE
:100740009105A8F321E0C21AD108E108F10888EE6A
:10075000880E83E0981EA11CB11CC114D104E104D1
:10076000F10429F7809156019091570101969093D9
:1007700057018093560198CFE1E0B5CF209709F457
:100780006BCF0E94000068CFE3E6F1E01382128293
:1007900084E091E09183808387E084838FEF858379
:1007A00086E0868385E0878384E0808783E0818795
:1007B00082E082871386148615861686178681E066
:1007C0000C94F101EE0FFF1F0590F491E02D0994B8
:0407D000F894FFCFCB
:1007D4000000000093021701450144013132334106
:1007E40034353642373839432A30234402004D0029
:1007F4009000CA00F40022014B0170018A01A80193
:10080400C401DD01F00106021A022C025465636C76
:1008140061646F2D50616E74616C6C61002054656D
:06082400636C613A200044
:00000001FF
