:100000000C945D000C9485000C9485000C94850084
:100010000C9485000C9485000C9485000C9485004C
:100020000C9485000C9485000C9485000C9485003C
:100030000C9485000C9485000C9485000C9485002C
:100040000C9499020C9485000C9485000C94850006
:100050000C9485000C9485000C9485000C9485000C
:100060000C9485000C94850000000008000201003B
:100070000003040700000000000000000000000072
:10008000250028002B0000000000240027002A0083
:10009000040404040404040402020202020203032E
:1000A0000303030301020408102040800102040836
:1000B0001020010204081020C40311241FBECFEF3A
:1000C000D8E0DEBFCDBF11E0A0E0B1E0E4EDF7E0A5
:1000D00002C005900D92AA34B107D9F721E0AAE435
:1000E000B1E001C01D92AF36B207E1F710E0CDE5F7
:1000F000D0E004C02197FE010E94E203CC35D10775
:10010000C9F70E94E3020C94E8030C94000090E00D
:10011000FC01EC55FF4F249180579F4FFC018491C7
:10012000882399F090E0880F991FFC01EA57FF4F50
:10013000A591B491FC01E458FF4F859194918FB73C
:10014000F894EC91E22BEC938FBF089590E0FC01C2
:10015000E859FF4F2491FC01EC55FF4F3491FC010D
:10016000E057FF4FE491EE23C9F0222339F023300A
:1001700001F1A8F4213019F1223029F1F0E0EE0F5D
:10018000FF1FE458FF4FA591B4918FB7F894EC91FD
:10019000611126C030953E233C938FBF08952730D0
:1001A000A9F02830C9F0243049F7809180008F7D74
:1001B00003C0809180008F7780938000DFCF84B56B
:1001C0008F7784BDDBCF84B58F7DFBCF8091B0006E
:1001D0008F778093B000D2CF8091B0008F7DF9CF20
:1001E0003E2BDACF3FB7F8948091530190915401A0
:1001F000A0915501B091560126B5A89B05C02F3F8F
:1002000019F00196A11DB11D3FBFBA2FA92F982F3C
:100210008827BC01CD01620F711D811D911D42E037
:10022000660F771F881F991F4A95D1F70895AF92DF
:10023000BF92CF92DF92EF92FF920F931F93CF93D3
:10024000DF936C017B018B01040F151FEB015E0135
:10025000AE18BF08C017D10759F06991D601ED91CA
:10026000FC910190F081E02DC6010995892B79F769
:10027000C501DF91CF911F910F91FF90EF90DF901B
:10028000CF90BF90AF900895089590E080E00895DA
:10029000FC0101900020E9F73197AF01481B590B91
:1002A000BC0187E591E00C941701CF93DF93EC013B
:1002B00060E08E810E94A60061E08E810E94A6000F
:1002C00060E08E810E94A6008BE891E00197F1F733
:1002D000DF91CF910895CF92DF92EF92FF920F932B
:1002E0001F93CF93DF936C017C0187E0E80EF11C34
:1002F000D0E0C0E0062F10E0B8010C2E02C07595CA
:1003000067950A94E2F76170F70181917F010E947D
:10031000A6002196C430D10579F7C601DF91CF91AF
:100320001F910F91FF90EF90DF90CF900C945501AB
:10033000CF92DF92EF92FF920F931F93CF93DF93B1
:10034000EC01F62E642F8C810E94A6008D818F3FD8
:1003500019F060E00E94A6000F2D10E08F8584FF49
:1003600025C06E0187E0C80ED11CF12CE12CB8012C
:100370000E2C02C0759567950A94E2F76170F6013C
:1003800081916F010E94A600FFEFEF1AFF0A88E03B
:10039000E816F10461F7CE01DF91CF911F910F9123
:1003A000FF90EF90DF90CF900C945501B80184E05E
:1003B000759567958A95E1F7CE010E946B016F2DC7
:1003C000CE01DF91CF911F910F91FF90EF90DF90C1
:1003D000CF900C946B0140E0682F87E591E00C947E
:1003E0009801CF93DF93823029F490916601986051
:1003F0009093660180936A0110926B0180E4809370
:100400006C0180E180936D0180E580936E018091A5
:100410005B010E94870080915C018F3F11F00E9478
:10042000870080915D010E948700C7E5D1E09E01B1
:10043000275531408091660184FD0AC084E090E038
:100440002196281739073CF48E810E948700EFCF50
:1004500088E090E0F5CF8BE39DE00197F1F760E055
:1004600080915B010E94A60060E080915D010E9486
:10047000A60080915C018F3F19F060E00E94A60009
:100480008091660184FD39C063E087E591E00E94B8
:100490006B01CBE4D6E4CE010197F1F763E087E589
:1004A00091E00E946B012197F1F763E087E591E00D
:1004B0000E946B0183E592E00197F1F762E087E526
:1004C00091E00E946B018091660180620E94EB01C5
:1004D00084E0809367018CE00E94EB0181E00E9440
:1004E000EB018BE39FE10197F1F782E080936801D4
:1004F00086E0DF91CF910C94EB0180620E94EB01CA
:100500008BE496E40197F1F78091660180620E9486
:10051000EB0183E592E00197F1F78091660180623B
:100520000E94EB01D0CF41E00E94980181E090E071
:1005300008951F920F920FB60F9211242F933F939D
:100540008F939F93AF93BF9380914F0190915001F0
:10055000A0915101B091520130914E0123E0230F3F
:100560002D3758F50196A11DB11D20934E018093A2
:100570004F0190935001A0935101B093520180918B
:10058000530190915401A0915501B09156010196EB
:10059000A11DB11D8093530190935401A093550167
:1005A000B0935601BF91AF919F918F913F912F9141
:1005B0000F900FBE0F901F90189526E8230F0296FC
:1005C000A11DB11DD2CF789484B5826084BD84B55D
:1005D000816084BD85B5826085BD85B5816085BD3E
:1005E00080916E00816080936E00109281008091F6
:1005F000810082608093810080918100816080937E
:100600008100809180008160809380008091B100A2
:1006100084608093B1008091B00081608093B000CD
:1006200080917A00846080937A0080917A00826061
:1006300080937A0080917A00816080937A00809123
:100640007A00806880937A001092C10082E00E9454
:10065000F10115E4C0E0D0E0E1E080916A01811190
:10066000E0E0E195F0E0E95AFE4F848980680E945D
:10067000EB0180E391E00E94480110937C0080919F
:100680007A00806480937A0080917A0086FDFCCFA6
:10069000809178009091790090934D0180934C0166
:1006A00010924B0110924A0180914A0190914B01A6
:1006B000803191050CF062C0880F991FFC01E85E43
:1006C000FE4F80914C0190914D0120813181821B20
:1006D000930B0496099708F045C0E0916A01E23057
:1006E00008F04AC0E150F0E0E95AFE4F8489806882
:1006F0000E94EB0181E491E00E944801E0914A01EF
:10070000F0914B01E45FFE4F41E0608187E591E0AD
:100710000E94980188E491E00E9448010E94F20042
:100720004B015C0184E6C82ED12CE12CF12C0E94F7
:10073000F200681979098A099B09683E73408105AE
:100740009105A8F321E0C21AD108E108F10888EE6A
:10075000880E83E0981EA11CB11CC114D104E104D1
:10076000F10429F780914A0190914B0101969093F1
:100770004B0180934A0198CFE1E0B5CF209709F46F
:100780006BCF0E94000068CFE7E5F1E01382128290
:1007900084E091E09183808387E084838FEF858379
:1007A00086E0868385E0878384E0808783E0818795
:1007B00082E082871386148615861686178681E066
:1007C0000C94F101EE0FFF1F0590F491E02D0994B8
:0407D000F894FFCFCB
:1007D4000000000093021701450144013132333413
:1007E40035363738392A302302004D009000F400A2
:1007F40022014B018A01A801C401F00106021A0278
:100804005465636C61646F2D50616E74616C6C61CE
:0A08140000205465636C613A200077
:00000001FF
